:020000040800F2
:1000000080040020010100087F0F0008CD0E0008C9
:100010007D0F00080D0400083111000800000000E9
:100020000000000000000000000000009310000825
:100030000F04000800000000B30F0008951000082E
:100040001B0100081B0100081B0100081B01000820
:100050001B0100081B0100081B0100081B01000810
:100060001B0100081B0100081B0100081B01000800
:100070001B0100081B0100081B0100081B010008F0
:100080001B0100081B0100081B0100081B010008E0
:100090001B0100081B0100081B0100081B010008D0
:1000A0001B0100081B0100081B0100081B010008C0
:1000B0001B0100081B0100081B0100081B010008B0
:1000C0001B0100081B0100081B0100081B010008A0
:1000D0001B0100081B0100081B0100081B01000890
:1000E0001B0100081B0100081B010008DFF80CD0F1
:1000F00000F0D6F8004800475111000880040020A5
:100100000648804706480047FEE7FEE7FEE7FEE7B1
:10011000FEE7FEE7FEE7FEE7FEE7FEE7E910000880
:10012000ED000008D2B201E000F8012B491EFBD21D
:1001300070470022F6E710B513460A4604461946F2
:10014000FFF7F0FF204610BD80EA010210B502F073
:100150000043400022D04A001FD0010E01EB126183
:10016000C0F35600C2F3560240F4000042F400020D
:10017000A0FB022000047F39140400D0401C50EA88
:10018000124001D44000491EC2B20C0604EBD0104C
:10019000401C4008802A02D003E0002010BD20F05F
:1001A0000100002900DA0020184310BD30B480EAB5
:1001B000010202F0004530F0004221F0004013D06F
:1001C00090B1C30DD40DC2F31601C0F31600E41AAA
:1001D00041F4000140F400027D34914201D3641CDB
:1001E00000E04900002C02DA30BC002070474FF4D8
:1001F00000000023914201D3891A034340084FEACB
:100200004101F7D151B1914202D14FF0004105E0D7
:1002100002D24FF0010101E06FF0010103EBC45085
:10022000284430BC00F005B896230022114600F0A7
:1002300009B80029A8BF7047401C490008BF20F03A
:100240000100704710B4B0FA80FC00FA0CF050EADC
:10025000010404BF10BC704749B1CCF1200421FA5D
:1002600004F411FA0CF118BF012121430843A3EB58
:100270000C01CB1D4FEA00614FEA102042BF002065
:1002800010BC704700EBC35010440029A4BF10BC41
:100290007047401C490008BF20F0010010BC7047A7
:1002A000064C074D06E0E06840F0010394E80700C3
:1002B00098471034AC42F6D3FFF71CFFB411000886
:1002C000D4110008094810B5074901600849416088
:1002D000102101810521182000F064F80021BDE8FB
:1002E0001040192000F05EB81800002070000020B7
:1002F0000008014070B5024600F052FE012801D10D
:1003000042F40042104C42F480450022218960688A
:1003100000F05EF9284600F05DFE21890122606848
:1003200000F056F921890022606800F051F9284652
:1003300000F050FE054621890122606800F048F96E
:10034000C5F30D0070BD00007000002070B5094CB1
:1003500000222189606800F03BF94FF6FF7000F041
:1003600039FE054621890122606800F031F9C5F3A4
:100370000D0070BD7000002010B543F6FC70FFF753
:10038000B9FF43F6FE70FFF7B5FF0446C0F38711CF
:10039000162000F007F804F03F01BDE810401720D8
:1003A000AFF3008070B506460D46C0F30D0000F0B7
:1003B000F7FD012801D146F40046134C00222189A3
:1003C000606800F005F9304600F004FE2189012242
:1003D000606800F0FDF8C5F30D0000F0E1FD0128B4
:1003E00001D145F4004521890022606800F0F0F851
:1003F000284600F0EFFD054621890122606800F0E3
:10040000E7F8284670BD000070000020FEE7704746
:10041000704700002DE9F84FDFF890A100220AF1A3
:10042000040B144601274FF00F090BF1040E00BF17
:100430000B6807FA04F52B40AB4274D1DFF870C1AA
:100440004E68A6EB0C0866452BD00DDC032E34D08D
:1004500005DC36B3012E19D0022E2FD11BE0112E50
:1004600016D0122E2AD119E0B8F5881F19D006DC53
:10047000B8F5803F15D0B8F5801F1FD111E0B8F551
:10048000001F0ED0B8F5041F18D10AE0CA6815E0A5
:10049000CA68121D12E0CA6808320FE0CA680C323E
:1004A0000CE08A682AB1012A4FF0080203D04561A6
:1004B00004E0042202E0056100E00022FF2B01D8E5
:1004C000064601E000F104064FEA840501D9A5F1D2
:1004D0002005D6F800C009FA05F82CEA080C02FA43
:1004E00005F54CEA050CC6F800C04D68ED0057D57F
:1004F000304DAE6946F00106AE61AD6924F00306E9
:1005000005F0010500952C4D06EB050CDCF80850B4
:10051000A6074FEA167809FA08F6B543274EB04207
:1005200002D1002610E03BE0254EB04201D1012669
:100530000AE0244EB04201D1022605E0224EB0422C
:1005400001D1032600E0042606FA08F62E43CCF873
:1005500008604D68DAF80060ED03554601D51E438A
:1005600000E09E432E604D68DBF80060AD035D4601
:1005700001D51E4300E09E432E604D68DEF800600A
:10058000ED02754601D51E4300E09E432E604D6886
:10059000AD020E4D2E6801D51E4300E09E432E6035
:1005A000641C102CFFF444AFBDE8F88F0004014038
:1005B000000011100010024000000140000801403E
:1005C000000C014000100140001401400C040140E7
:1005D0000AB1016170470904FBE700000148806827
:1005E000704700000800002002488168027811442A
:1005F0008160704708000020074810B5016841F08D
:1006000010010160032000F067F8002000F006F8F8
:1006100000F024F8002010BD0020024070B50D4D00
:1006200004464FF47A712878B1FBF0F00A49096862
:10063000B1FBF0F000F036FC48B9102C07D20022D4
:100640002146501E00F028F800206C6070BD01208B
:1006500070BD000008000020140000200C4808B500
:10066000816941F001018161816901F0010100911D
:10067000C16941F08051C161C06900F080500090B3
:100680000448416821F0E06141F00071416008BD1B
:100690000010024000000140F0B40E4B1B680C46F5
:1006A000C3F30223C3F10705042D00D90425191D46
:1006B000072901D2002300E0DB1E012606FA05F11E
:1006C000491E214099409E40761E16403143F0BCA1
:1006D00000F056BC0CED00E0064900F00702086887
:1006E0004FF6FF03184040EA0220034A1043086017
:1006F000704700000CED00E00000FA052DE9F0471E
:10070000DFF8548105460E46D8F8000000F00700D7
:10071000B0420CD2D8F8001021F007013143C8F8DC
:100720000010D8F8000000F00700B0426FD1286830
:100730004A4C810712D5400703D5606840F4E06059
:1007400060602878000703D5606840F460506060FE
:100750006068A96820F0F000084360602878C0074E
:1007600044D06868012816D02168022816D089076D
:1007700000294CDA616821F0030101436160FFF751
:100780002DFF6968074641F2883001290ED0022901
:10079000814618D026E021688903E9E78901E7E767
:1007A000FFF71CFFC11B494501D918E0814660686D
:1007B000C0F381000128F3D118E000BFFFF70EFF5E
:1007C000C11B49450BD86068C0F381000228F5D1F0
:1007D0000CE000BFFFF702FFC11B494502D903200F
:1007E000BDE8F087606810F00C0FF3D1D8F8001066
:1007F000404601F00701B1420BD9016821F0070121
:1008000031430160006800F00700B04201D00120D0
:10081000E6E72878400705D56068E96820F4E060DD
:10082000084360602878000706D56068296920F4CD
:10083000605040EAC100606000F016F86168084A44
:10084000C1F30311515CC840064908600020FFF75E
:10085000E5FE0020C4E70000002002400010024036
:10086000A41100081400002012A185B00FC98DE862
:100870000F0014A0144A006804905168134801F056
:100880000C03042B10D0082B0ED1C1F38343C903F2
:100890001DF803000AD5516804AAC1F34041515C18
:1008A0000A4A5043B0FBF1F005B07047084948438D
:1008B000FAE7000002030405060708090A0B0C0DFD
:1008C0000E0F1010010200000010024000127A000A
:1008D00000093D002DE9F84F04460078B94DC007E6
:1008E00048D06868C0F38100012807D06868C0F369
:1008F0008100022809D16868C00306D528688003F2
:1009000038D5606800286FD034E06068B0F5803F6B
:100910000BD010B1B0F5A02F11D0286820F4803092
:100920002860286820F4802002E0286840F48030A5
:100930002860606888B1FFF751FE064609E0286824
:1009400040F480202860F0E7FFF748FE801B642811
:1009500075D828688003F7D50CE0FFF73FFE064600
:1009600005E000BFFFF73AFE801B6428F0D8286836
:100970008003F7D42078944E80074FF001094FF0A0
:1009800000083BD5686810F00C0F07D06868C0F30A
:100990008100022809D16868C00306D4286880074E
:1009A00014D5206901281FD110E02069B0B1C6F824
:1009B0000090FFF713FE074605E000BFFFF70EFEAD
:1009C000C01B0228C4D828688007F7D52868616949
:1009D00020F0F80040EAC10028600FE0C6F800806F
:1009E000FFF7FCFD074606E0E9E000BFFFF7F6FD74
:1009F000C01B022823D828688007F7D42078000776
:100A00002CD57248A169D9B1C0F80090FFF7E6FD76
:100A1000074604E0FFF7E2FDC01B02280FD8686A12
:100A20008007F7D56A484FF4FA510068B0FBF1F03F
:100A3000009000BF0098411E0091FAD20EE080E0C5
:100A4000C0F80080FFF7CAFD074604E0FFF7C6FDC7
:100A5000C01B022875D8686A8007F7D42078400741
:100A600060D5E8690027C00008D4E86940F08050EC
:100A7000E861E869012700F080500090554801685E
:100A8000C90513D40168834641F480710160FFF702
:100A9000A5FD824606E000BFFFF7A0FDA0EB0A001F
:100AA00064284ED8DBF80000C005F5D5E0680128C1
:100AB0000AD008B1052813D0286A20F00100286266
:100AC000286A20F0040002E0286A40F00100286251
:100AD000E06841F2883B98B1FFF780FD82460BE069
:100AE000286A40F004002862EEE700BFFFF776FDB9
:100AF000A0EB0A0159455AD8286A8007F6D50CE0C0
:100B0000FFF76CFD824605E0FFF768FDA0EB0A01E8
:100B100059454CD8286A8007F6D41FB1E86920F0FF
:100B20008050E861E06988B36968C1F381010229F6
:100B300045D00228C6F8608004D0FFF74FFD044678
:100B400038E034E0FFF74AFD074604E0FFF746FDD2
:100B5000C01B02282BD828688001F7D4206AB0F582
:100B6000803F05D16868A16820F4003008436860C0
:100B7000D4E908010843696821F4741108436860E6
:100B8000C6F86090FFF72AFD044606E015E000BFB6
:100B9000FFF724FD001B022809D828688001F7D53B
:100BA0000BE000BFFFF71AFD001B022802D903204B
:100BB000BDE8F88F28688001F4D40020F8E7012010
:100BC000F6E700000010024000004242800442426A
:100BD000140000200070004070B5040005D000250E
:100BE000A56294F8510010B104E0012070BD2046C8
:100BF00000F034F8022084F851002068016821F0E8
:100C000040010160D4E901010843D4E90312114312
:100C1000084361690843218B01F400710843E169CD
:100C20000843216A0843A16A084321680860A06953
:100C3000042101EA1040616A084321684860216884
:100C4000E06A08612068C16921F40061C1616565DD
:100C5000012084F85100002070BD000030B585B03F
:100C6000002400940194029403940068144988427B
:100C700023D11448816941F480518161816901F473
:100C800080510491816941F00401816180690E4DB8
:100C900000F004000490A0200090022001900320A6
:100CA000039069462846FFF7B5FB4020CDE90004D4
:100CB000694628460294FFF7ADFB05B030BD000041
:100CC0000030014000100240000801402DE9F84FBB
:100CD000044690F8500000260A9F9A4693460D4617
:100CE0004FF0010801280ED0012084F85000FFF7D2
:100CF00075FC814694F85100616801280CD0B1F56B
:100D0000827F07D102E00220BDE8F88FA16809B90F
:100D1000042801D00226BDE055B1BBF1000F07D079
:100D2000BAF1000F04D094F85100012802D004E079
:100D30000126AFE0052084F8510000206065C4F86A
:100D400038B0A4F83EA0A4F83CA02563A4F836A0CF
:100D5000A4F834A02064606420680168490603D4C4
:100D6000016841F040010160E068B0F5006F606823
:100D700004D0E8B3E08E01283BD06AE010B1E08EE9
:100D800001282ED1216835F8020BC860E08E401E84
:100D9000E08626E0B8F1000F0DD0E08E58B1206853
:100DA0008168890707D535F8021BC160E08E401EB7
:100DB000E0864FF00008E08F58B120688168C907CD
:100DC00007D0C0682BF8020BE08F401EE0874FF081
:100DD0000108781C05D0FFF701FCA0EB0900B84220
:100DE00046D2E08E0028D5D1E08F0028D2D136E05F
:100DF000FFE7216815F8010B0873E08E401EE086BE
:100E000027E000BFB8F1000F0DD0E08E58B1206888
:100E10008168890707D515F8011B0173E08E401E14
:100E2000E0864FF00008E08F58B120688168C9075C
:100E300007D0C0680BF8010BE08F401EE0874FF031
:100E40000108781C05D0FFF7C9FBA0EB0900B842E8
:100E50000ED2E08E0028D5D1E08F0028D2D13B46BB
:100E6000012202212046CDF8009000F0C7F808B119
:100E700003260FE04A463946204600F09BF818B199
:100E800001262020606505E0A06818B92068C168C7
:100E900080680090012084F85100002084F8500000
:100EA000304631E710B5401EB0F1807F01D30120FC
:100EB00010BD4FF0E02460610F21601700F060F872
:100EC0000020A06107202061002010BDFEE7000087
:100ED00030B585B000241448009401940294039422
:100EE000816941F020018161816901F02001049153
:100EF000816941F00401816180690C4D00F00400BA
:100F00000490012210212846FFF762FB1020009078
:100F10000120CDE901040220039069462846FFF72D
:100F200079FA05B030BD0000001002400008014011
:100F3000114810B50F4901604FF4827141600021E2
:100F40004FF40062C0E902120122C0E90412520209
:100F500082610822C0E90721416281620A21C162DF
:100F6000FFF73AFE002803D0BDE81040FFF750BA63
:100F700010BD00000030014018000020FEE770475F
:100F80000907090E002806DA00F00F0000F1E02042
:100F900080F8141D704700F1E02080F800147047BD
:100FA000002101E0414040080028FBD101F0010090
:100FB0007047704738B50B460092044600228021E6
:100FC00000F01CF8002804D0606D40F0200060653F
:100FD000032038BD01B582B064200090064801238B
:100FE00001AA006802A9FFF771FE10B10020ADF858
:100FF0000400BDF804000EBD700000202DE9F04192
:101000001D4617460E460446DDF8188035E0681C7C
:1010100033D02DB1FFF7E2FAA0EB0800A8422CD3A1
:101020002068416821F0E00141606068B0F5827F8E
:101030000BD1A068B0F5004F02D0B0F5806F04D19D
:101040002068016821F040010160A06AB0F5005FEE
:101050000AD1206801684DF6FF72114001602068D6
:10106000016841F400510160012084F85100002022
:1010700084F850000320BDE8F0812068806836EADB
:10108000000004D00020B842C1D10020F3E70120C5
:10109000F9E77047FFF7A8BA30B58FB02821684646
:1010A000FFF747F814210AA8FFF743F801210804C5
:1010B000CDE900100024029402250491CDE90750E7
:1010C0004FF4E01009906846FFF704FC0F20CDE9CB
:1010D0000A056802CDE90C4002210AA80E94FFF728
:1010E0000DFB0FB030BD00000D48016841F001015B
:1010F000016041680B4A1140416001680A4A114091
:101100000160016821F480210160416821F4FE0141
:1011100041604FF41F0181600449C00308607047BB
:10112000001002400000FFF8FFFFF6FE08ED00E0AF
:10113000FEE702E008C8121F08C1002AFAD1704772
:101140007047002001E001C1121F002AFBD1704747
:10115000FFF752FAFFF7A0FFFFF7BAFEFFF7E8FE2E
:10116000FFF7B0F8FFF708F943F6FF70FFF7C2F892
:10117000094D0A4E0A4C00BFFFF7E8F8FFF754F894
:101180002946FEF7E1FF3146FFF710F8206060685E
:10119000401C6060F0E700000000B44300FC7F46A4
:1011A0000000002000000000000000000102030415
:1011B00006070809D41100080000002018000000EC
:1011C00032110008EC11000818000020680400002B
:1011D00042110008000000000000000001000000B3
:0C11E000100000000000000000A24A0403
:04000005080000ED02
:00000001FF
